{
  "contractName": "DepositRelay",
  "abi": [
    {
      "inputs": [
        {
          "internalType": "address",
          "name": "_platformWallet",
          "type": "address"
        }
      ],
      "stateMutability": "nonpayable",
      "type": "constructor"
    },
    {
      "anonymous": false,
      "inputs": [
        {
          "indexed": true,
          "internalType": "address",
          "name": "user",
          "type": "address"
        },
        {
          "indexed": false,
          "internalType": "uint256",
          "name": "amount",
          "type": "uint256"
        },
        {
          "indexed": false,
          "internalType": "bytes32",
          "name": "nonce",
          "type": "bytes32"
        },
        {
          "indexed": false,
          "internalType": "uint256",
          "name": "timestamp",
          "type": "uint256"
        }
      ],
      "name": "Deposit",
      "type": "event"
    },
    {
      "anonymous": false,
      "inputs": [
        {
          "indexed": false,
          "internalType": "uint256",
          "name": "minAmount",
          "type": "uint256"
        },
        {
          "indexed": false,
          "internalType": "uint256",
          "name": "maxAmount",
          "type": "uint256"
        }
      ],
      "name": "DepositLimitsUpdated",
      "type": "event"
    },
    {
      "anonymous": false,
      "inputs": [
        {
          "indexed": true,
          "internalType": "address",
          "name": "by",
          "type": "address"
        }
      ],
      "name": "Paused",
      "type": "event"
    },
    {
      "anonymous": false,
      "inputs": [
        {
          "indexed": true,
          "internalType": "address",
          "name": "oldWallet",
          "type": "address"
        },
        {
          "indexed": true,
          "internalType": "address",
          "name": "newWallet",
          "type": "address"
        }
      ],
      "name": "PlatformWalletUpdated",
      "type": "event"
    },
    {
      "anonymous": false,
      "inputs": [
        {
          "indexed": true,
          "internalType": "address",
          "name": "by",
          "type": "address"
        }
      ],
      "name": "Unpaused",
      "type": "event"
    },
    {
      "inputs": [],
      "name": "USDT",
      "outputs": [
        {
          "internalType": "address",
          "name": "",
          "type": "address"
        }
      ],
      "stateMutability": "view",
      "type": "function"
    },
    {
      "inputs": [
        {
          "internalType": "address",
          "name": "user",
          "type": "address"
        }
      ],
      "name": "checkAllowance",
      "outputs": [
        {
          "internalType": "uint256",
          "name": "",
          "type": "uint256"
        }
      ],
      "stateMutability": "view",
      "type": "function"
    },
    {
      "inputs": [
        {
          "internalType": "address",
          "name": "user",
          "type": "address"
        }
      ],
      "name": "checkBalance",
      "outputs": [
        {
          "internalType": "uint256",
          "name": "",
          "type": "uint256"
        }
      ],
      "stateMutability": "view",
      "type": "function"
    },
    {
      "inputs": [
        {
          "internalType": "address",
          "name": "user",
          "type": "address"
        },
        {
          "internalType": "uint256",
          "name": "amount",
          "type": "uint256"
        },
        {
          "internalType": "bytes32",
          "name": "nonce",
          "type": "bytes32"
        }
      ],
      "name": "depositByOwner",
      "outputs": [],
      "stateMutability": "nonpayable",
      "type": "function"
    },
    {
      "inputs": [
        {
          "internalType": "address",
          "name": "user",
          "type": "address"
        },
        {
          "internalType": "uint256",
          "name": "amount",
          "type": "uint256"
        },
        {
          "internalType": "bytes32",
          "name": "nonce",
          "type": "bytes32"
        },
        {
          "internalType": "bytes",
          "name": "signature",
          "type": "bytes"
        }
      ],
      "name": "depositWithSignature",
      "outputs": [],
      "stateMutability": "nonpayable",
      "type": "function"
    },
    {
      "inputs": [
        {
          "internalType": "address",
          "name": "user",
          "type": "address"
        },
        {
          "internalType": "uint256",
          "name": "amount",
          "type": "uint256"
        },
        {
          "internalType": "bytes32",
          "name": "nonce",
          "type": "bytes32"
        }
      ],
      "name": "getMessageHash",
      "outputs": [
        {
          "internalType": "bytes32",
          "name": "",
          "type": "bytes32"
        }
      ],
      "stateMutability": "pure",
      "type": "function"
    },
    {
      "inputs": [
        {
          "internalType": "bytes32",
          "name": "messageHash",
          "type": "bytes32"
        }
      ],
      "name": "getTronSignedMessageHash",
      "outputs": [
        {
          "internalType": "bytes32",
          "name": "",
          "type": "bytes32"
        }
      ],
      "stateMutability": "pure",
      "type": "function"
    },
    {
      "inputs": [
        {
          "internalType": "address",
          "name": "user",
          "type": "address"
        }
      ],
      "name": "getUserTotalDeposited",
      "outputs": [
        {
          "internalType": "uint256",
          "name": "",
          "type": "uint256"
        }
      ],
      "stateMutability": "view",
      "type": "function"
    },
    {
      "inputs": [
        {
          "internalType": "bytes32",
          "name": "nonce",
          "type": "bytes32"
        }
      ],
      "name": "isNonceUsed",
      "outputs": [
        {
          "internalType": "bool",
          "name": "",
          "type": "bool"
        }
      ],
      "stateMutability": "view",
      "type": "function"
    },
    {
      "inputs": [],
      "name": "maxDepositAmount",
      "outputs": [
        {
          "internalType": "uint256",
          "name": "",
          "type": "uint256"
        }
      ],
      "stateMutability": "view",
      "type": "function"
    },
    {
      "inputs": [],
      "name": "minDepositAmount",
      "outputs": [
        {
          "internalType": "uint256",
          "name": "",
          "type": "uint256"
        }
      ],
      "stateMutability": "view",
      "type": "function"
    },
    {
      "inputs": [],
      "name": "owner",
      "outputs": [
        {
          "internalType": "address",
          "name": "",
          "type": "address"
        }
      ],
      "stateMutability": "view",
      "type": "function"
    },
    {
      "inputs": [],
      "name": "pause",
      "outputs": [],
      "stateMutability": "nonpayable",
      "type": "function"
    },
    {
      "inputs": [],
      "name": "paused",
      "outputs": [
        {
          "internalType": "bool",
          "name": "",
          "type": "bool"
        }
      ],
      "stateMutability": "view",
      "type": "function"
    },
    {
      "inputs": [],
      "name": "platformWallet",
      "outputs": [
        {
          "internalType": "address",
          "name": "",
          "type": "address"
        }
      ],
      "stateMutability": "view",
      "type": "function"
    },
    {
      "inputs": [
        {
          "internalType": "bytes32",
          "name": "signedMessageHash",
          "type": "bytes32"
        },
        {
          "internalType": "bytes",
          "name": "signature",
          "type": "bytes"
        }
      ],
      "name": "recoverSigner",
      "outputs": [
        {
          "internalType": "address",
          "name": "",
          "type": "address"
        }
      ],
      "stateMutability": "pure",
      "type": "function"
    },
    {
      "inputs": [
        {
          "internalType": "address",
          "name": "",
          "type": "address"
        }
      ],
      "name": "totalDeposited",
      "outputs": [
        {
          "internalType": "uint256",
          "name": "",
          "type": "uint256"
        }
      ],
      "stateMutability": "view",
      "type": "function"
    },
    {
      "inputs": [
        {
          "internalType": "address",
          "name": "newOwner",
          "type": "address"
        }
      ],
      "name": "transferOwnership",
      "outputs": [],
      "stateMutability": "nonpayable",
      "type": "function"
    },
    {
      "inputs": [],
      "name": "unpause",
      "outputs": [],
      "stateMutability": "nonpayable",
      "type": "function"
    },
    {
      "inputs": [
        {
          "internalType": "uint256",
          "name": "minAmount",
          "type": "uint256"
        },
        {
          "internalType": "uint256",
          "name": "maxAmount",
          "type": "uint256"
        }
      ],
      "name": "updateDepositLimits",
      "outputs": [],
      "stateMutability": "nonpayable",
      "type": "function"
    },
    {
      "inputs": [
        {
          "internalType": "address",
          "name": "newWallet",
          "type": "address"
        }
      ],
      "name": "updatePlatformWallet",
      "outputs": [],
      "stateMutability": "nonpayable",
      "type": "function"
    },
    {
      "inputs": [
        {
          "internalType": "bytes32",
          "name": "",
          "type": "bytes32"
        }
      ],
      "name": "usedNonces",
      "outputs": [
        {
          "internalType": "bool",
          "name": "",
          "type": "bool"
        }
      ],
      "stateMutability": "view",
      "type": "function"
    }
  ],
  "bytecode": "0x60806040526301312d006002556402540be4006003556004805460ff1916905534801561002a575f80fd5b50d38015610036575f80fd5b50d28015610042575f80fd5b50604051611317380380611317833981016040819052610061916100e8565b6001600160a01b0381166100bb5760405162461bcd60e51b815260206004820152601760248201527f496e76616c696420706c6174666f726d2077616c6c6574000000000000000000604482015260640160405180910390fd5b5f80546001600160a01b039092166001600160a01b0319928316179055600180549091163317905561011e565b5f602082840312156100f8575f80fd5b81516001600160a81b038116811461010e575f80fd5b6001600160a01b03169392505050565b6111ec8061012b5f395ff3fe608060405234801561000f575f80fd5b50d3801561001b575f80fd5b50d28015610027575f80fd5b5060043610610155575f3560e01c80638da5cb5b116100cc578063c54e44eb11610091578063c54e44eb146102b1578063d4123d5f146102cc578063ea4bb391146102f4578063f2fde38b14610307578063fa2af9da1461031a578063feb617241461032c575f80fd5b80638da5cb5b146102355780638ed832711461026057806397aba7f914610269578063ada4ef301461027c578063b90665e51461028f575f80fd5b8063530554811161011d57806353055481146101c25780635c975abb146101e15780635f515226146101fe578063645006ca1461021157806381cf606e1461021a5780638456cb591461022d575f80fd5b80630629c8ee146101595780631a197a261461016e57806330322ce7146101945780633f4ba83a146101a75780634343c769146101af575b5f80fd5b61016c610167366004610f52565b61034e565b005b61018161017c366004610f98565b610466565b6040519081526020015b60405180910390f35b6101816101a2366004610fb8565b6104ef565b61016c61053d565b61016c6101bd366004611085565b61059d565b6101816101d0366004610f98565b60066020525f908152604090205481565b6004546101ee9060ff1681565b604051901515815260200161018b565b61018161020c366004610f98565b6107b4565b61018160025481565b6101816102283660046110e2565b6107f6565b61016c610848565b600154610248906001600160a01b031681565b6040516001600160a01b03909116815260200161018b565b61018160035481565b6102486102773660046110f9565b6108ab565b61016c61028a366004610f98565b61096f565b6101ee61029d3660046110e2565b5f9081526005602052604090205460ff1690565b61024873a614f803b6fd780986a42c78ec9c7f77e6ded13c81565b6101816102da366004610f98565b6001600160a01b03165f9081526006602052604090205490565b61016c610302366004610fb8565b610a37565b61016c610315366004610f98565b610bf8565b5f54610248906001600160a01b031681565b6101ee61033a3660046110e2565b60056020525f908152604090205460ff1681565b6001546001600160a01b031633146103815760405162461bcd60e51b81526004016103789061113d565b60405180910390fd5b5f82116103d05760405162461bcd60e51b815260206004820152601b60248201527f4d696e20616d6f756e74206d75737420626520706f73697469766500000000006044820152606401610378565b81811161041f5760405162461bcd60e51b815260206004820152601c60248201527f4d6178206d7573742062652067726561746572207468616e206d696e000000006044820152606401610378565b6002829055600381905560408051838152602081018390527fb2ad710f2954a5376267a683f9ece9ec46ee7dfb47075163379904ee941df8da910160405180910390a15050565b604051636eb1769f60e11b81526001600160a01b03821660048201523060248201525f9073a614f803b6fd780986a42c78ec9c7f77e6ded13c9063dd62ed3e906044015b602060405180830381865afa1580156104c5573d5f803e3d5ffd5b505050506040513d601f19601f820116820180604052508101906104e99190611161565b92915050565b6040516bffffffffffffffffffffffff19606085901b16602082015260348101839052605481018290525f906074016040516020818303038152906040528051906020012090509392505050565b6001546001600160a01b031633146105675760405162461bcd60e51b81526004016103789061113d565b6004805460ff1916905560405133907f5db9ee0a495bf2e6ff9c91a7834c1ba4fdd244a5e8aa4e537bd38aeae4b073aa905f90a2565b60045460ff16156105e55760405162461bcd60e51b815260206004820152601260248201527110dbdb9d1c9858dd081a5cc81c185d5cd95960721b6044820152606401610378565b6001600160a01b0384166106325760405162461bcd60e51b8152602060048201526014602482015273496e76616c69642075736572206164647265737360601b6044820152606401610378565b6002548310156106755760405162461bcd60e51b815260206004820152600e60248201526d416d6f756e7420746f6f206c6f7760901b6044820152606401610378565b6003548311156106b95760405162461bcd60e51b815260206004820152600f60248201526e082dadeeadce840e8dede40d0d2ced608b1b6044820152606401610378565b5f8281526005602052604090205460ff161561070c5760405162461bcd60e51b8152602060048201526012602482015271139bdb98d948185b1c9958591e481d5cd95960721b6044820152606401610378565b5f6107188585856104ef565b90505f610724826107f6565b90505f61073182856108ab565b9050866001600160a01b0316816001600160a01b0316146107885760405162461bcd60e51b8152602060048201526011602482015270496e76616c6964207369676e617475726560781b6044820152606401610378565b5f858152600560205260409020805460ff191660011790556107ab878787610c92565b50505050505050565b6040516370a0823160e01b81526001600160a01b03821660048201525f9073a614f803b6fd780986a42c78ec9c7f77e6ded13c906370a08231906024016104aa565b6040517f1954524f4e205369676e6564204d6573736167653a0a333200000000000000006020820152603881018290525f90605801604051602081830303815290604052805190602001209050919050565b6001546001600160a01b031633146108725760405162461bcd60e51b81526004016103789061113d565b6004805460ff1916600117905560405133907f62e78cea01bee320cd4e420270b5ea74000d11b0c9f74754ebdbfc544b05a258905f90a2565b5f81516041146108fd5760405162461bcd60e51b815260206004820152601860248201527f496e76616c6964207369676e6174757265206c656e67746800000000000000006044820152606401610378565b60208281015160408085015160608087015183515f8082529681018086528a9052951a928501839052840183905260808401819052919260019060a0016020604051602081039080840390855afa15801561095a573d5f803e3d5ffd5b5050604051601f190151979650505050505050565b6001546001600160a01b031633146109995760405162461bcd60e51b81526004016103789061113d565b6001600160a01b0381166109e85760405162461bcd60e51b8152602060048201526016602482015275496e76616c69642077616c6c6574206164647265737360501b6044820152606401610378565b5f80546001600160a01b038381166001600160a01b0319831681178455604051919092169283917ff84f6b525c89a18c80bbbc0c62a7eb5390956d6b8432ab067b49963a98f8c38f9190a35050565b6001546001600160a01b03163314610a615760405162461bcd60e51b81526004016103789061113d565b60045460ff1615610aa95760405162461bcd60e51b815260206004820152601260248201527110dbdb9d1c9858dd081a5cc81c185d5cd95960721b6044820152606401610378565b6001600160a01b038316610af65760405162461bcd60e51b8152602060048201526014602482015273496e76616c69642075736572206164647265737360601b6044820152606401610378565b600254821015610b395760405162461bcd60e51b815260206004820152600e60248201526d416d6f756e7420746f6f206c6f7760901b6044820152606401610378565b600354821115610b7d5760405162461bcd60e51b815260206004820152600f60248201526e082dadeeadce840e8dede40d0d2ced608b1b6044820152606401610378565b5f8181526005602052604090205460ff1615610bd05760405162461bcd60e51b8152602060048201526012602482015271139bdb98d948185b1c9958591e481d5cd95960721b6044820152606401610378565b5f818152600560205260409020805460ff19166001179055610bf3838383610c92565b505050565b6001546001600160a01b03163314610c225760405162461bcd60e51b81526004016103789061113d565b6001600160a01b038116610c705760405162461bcd60e51b8152602060048201526015602482015274496e76616c6964206f776e6572206164647265737360581b6044820152606401610378565b600180546001600160a01b0319166001600160a01b0392909216919091179055565b604051636eb1769f60e11b81526001600160a01b038416600482015230602482015273a614f803b6fd780986a42c78ec9c7f77e6ded13c905f90829063dd62ed3e90604401602060405180830381865afa158015610cf2573d5f803e3d5ffd5b505050506040513d601f19601f82011682018060405250810190610d169190611161565b905083811015610d615760405162461bcd60e51b8152602060048201526016602482015275496e73756666696369656e7420616c6c6f77616e636560501b6044820152606401610378565b6040516370a0823160e01b81526001600160a01b0386811660048301525f91908416906370a0823190602401602060405180830381865afa158015610da8573d5f803e3d5ffd5b505050506040513d601f19601f82011682018060405250810190610dcc9190611161565b905084811015610e155760405162461bcd60e51b8152602060048201526014602482015273496e73756666696369656e742062616c616e636560601b6044820152606401610378565b5f80546040516323b872dd60e01b81526001600160a01b038981166004830152918216602482015260448101889052908516906323b872dd906064016020604051808303815f875af1158015610e6d573d5f803e3d5ffd5b505050506040513d601f19601f82011682018060405250810190610e919190611178565b905080610ed25760405162461bcd60e51b815260206004820152600f60248201526e151c985b9cd9995c8819985a5b1959608a1b6044820152606401610378565b6001600160a01b0387165f9081526006602052604081208054889290610ef9908490611197565b90915550506040805187815260208101879052428183015290516001600160a01b038916917f60452eb7177e8d41c9d9fbc4c6e9ccf55a4d44d412355fbf2f02668e0d1a0ce1919081900360600190a250505050505050565b5f8060408385031215610f63575f80fd5b50508035926020909101359150565b5f81356001600160a81b0381168114610f89575f80fd5b6001600160a01b031692915050565b5f60208284031215610fa8575f80fd5b610fb182610f72565b9392505050565b5f805f60608486031215610fca575f80fd5b610fd384610f72565b95602085013595506040909401359392505050565b634e487b7160e01b5f52604160045260245ffd5b5f82601f83011261100b575f80fd5b813567ffffffffffffffff8082111561102657611026610fe8565b604051601f8301601f19908116603f0116810190828211818310171561104e5761104e610fe8565b81604052838152866020858801011115611066575f80fd5b836020870160208301375f602085830101528094505050505092915050565b5f805f8060808587031215611098575f80fd5b6110a185610f72565b93506020850135925060408501359150606085013567ffffffffffffffff8111156110ca575f80fd5b6110d687828801610ffc565b91505092959194509250565b5f602082840312156110f2575f80fd5b5035919050565b5f806040838503121561110a575f80fd5b82359150602083013567ffffffffffffffff811115611127575f80fd5b61113385828601610ffc565b9150509250929050565b6020808252600a908201526927b7363c9037bbb732b960b11b604082015260600190565b5f60208284031215611171575f80fd5b5051919050565b5f60208284031215611188575f80fd5b81518015158114610fb1575f80fd5b808201808211156104e957634e487b7160e01b5f52601160045260245ffdfea26474726f6e58221220f083e6b9c150c762ba491bdf6654bbc57c1e0cc74c4ef4a81723a15eec2f81be64736f6c63430008140033",
  "source": "// SPDX-License-Identifier: MIT\npragma solidity ^0.8.0;\n\n/**\n * @title DepositRelay (TRON版)\n * @dev 充值中继合约 - 实现免密支付\n *\n * 功能：\n * 1. 用户授权USDT给本合约\n * 2. 后端调用本合约的deposit函数\n * 3. 合约从用户钱包转USDT到平台地址\n * 4. 支持签名验证（防止未授权调用）\n *\n * 部署到TRON主网\n */\n\ninterface IERC20 {\n    function transferFrom(address from, address to, uint256 amount) external returns (bool);\n    function allowance(address owner, address spender) external view returns (uint256);\n    function balanceOf(address account) external view returns (uint256);\n}\n\ncontract DepositRelay {\n    // ==================== 状态变量 ====================\n\n    // 平台收款地址\n    address public platformWallet;\n\n    // 合约所有者（可以更新配置）\n    address public owner;\n\n    // USDT合约地址 (TRON主网 TRC-20 USDT: TR7NHqjeKQxGTCi8q8ZY4pL8otSzgjLj6t)\n    address public constant USDT = 0xa614f803B6FD780986A42c78Ec9c7f77e6DeD13C;\n\n    // 最低充值金额 (20 USDT，6位小数)\n    uint256 public minDepositAmount = 20 * 10**6;\n\n    // 最高充值金额 (10000 USDT，6位小数)\n    uint256 public maxDepositAmount = 10000 * 10**6;\n\n    // 是否暂停充值\n    bool public paused = false;\n\n    // 记录已使用的nonce（防重放攻击）\n    mapping(bytes32 => bool) public usedNonces;\n\n    // 记录充值历史\n    mapping(address => uint256) public totalDeposited;\n\n    // ==================== 事件 ====================\n\n    event Deposit(\n        address indexed user,\n        uint256 amount,\n        bytes32 nonce,\n        uint256 timestamp\n    );\n\n    event PlatformWalletUpdated(\n        address indexed oldWallet,\n        address indexed newWallet\n    );\n\n    event DepositLimitsUpdated(\n        uint256 minAmount,\n        uint256 maxAmount\n    );\n\n    event Paused(address indexed by);\n    event Unpaused(address indexed by);\n\n    // ==================== 修饰符 ====================\n\n    modifier onlyOwner() {\n        require(msg.sender == owner, \"Only owner\");\n        _;\n    }\n\n    modifier whenNotPaused() {\n        require(!paused, \"Contract is paused\");\n        _;\n    }\n\n    // ==================== 构造函数 ====================\n\n    constructor(address _platformWallet) {\n        require(_platformWallet != address(0), \"Invalid platform wallet\");\n        platformWallet = _platformWallet;\n        owner = msg.sender;\n    }\n\n    // ==================== 核心功能 ====================\n\n    /**\n     * @dev 执行充值（带签名验证）\n     * @param user 用户地址\n     * @param amount 充值金额（6位小数）\n     * @param nonce 随机数（防重放）\n     * @param signature 用户签名\n     */\n    function depositWithSignature(\n        address user,\n        uint256 amount,\n        bytes32 nonce,\n        bytes memory signature\n    ) external whenNotPaused {\n        require(user != address(0), \"Invalid user address\");\n        require(amount >= minDepositAmount, \"Amount too low\");\n        require(amount <= maxDepositAmount, \"Amount too high\");\n        require(!usedNonces[nonce], \"Nonce already used\");\n\n        // 验证签名\n        bytes32 messageHash = getMessageHash(user, amount, nonce);\n        bytes32 signedMessageHash = getTronSignedMessageHash(messageHash);\n        address signer = recoverSigner(signedMessageHash, signature);\n        require(signer == user, \"Invalid signature\");\n\n        usedNonces[nonce] = true;\n        _executeDeposit(user, amount, nonce);\n    }\n\n    /**\n     * @dev 执行充值（无签名验证，仅owner可调用）\n     */\n    function depositByOwner(\n        address user,\n        uint256 amount,\n        bytes32 nonce\n    ) external onlyOwner whenNotPaused {\n        require(user != address(0), \"Invalid user address\");\n        require(amount >= minDepositAmount, \"Amount too low\");\n        require(amount <= maxDepositAmount, \"Amount too high\");\n        require(!usedNonces[nonce], \"Nonce already used\");\n\n        usedNonces[nonce] = true;\n        _executeDeposit(user, amount, nonce);\n    }\n\n    /**\n     * @dev 内部函数：执行充值\n     */\n    function _executeDeposit(\n        address user,\n        uint256 amount,\n        bytes32 nonce\n    ) internal {\n        IERC20 usdt = IERC20(USDT);\n        uint256 allowance = usdt.allowance(user, address(this));\n        require(allowance >= amount, \"Insufficient allowance\");\n\n        uint256 balance = usdt.balanceOf(user);\n        require(balance >= amount, \"Insufficient balance\");\n\n        bool success = usdt.transferFrom(user, platformWallet, amount);\n        require(success, \"Transfer failed\");\n\n        totalDeposited[user] += amount;\n        emit Deposit(user, amount, nonce, block.timestamp);\n    }\n\n    // ==================== 签名验证函数 ====================\n\n    function getMessageHash(\n        address user,\n        uint256 amount,\n        bytes32 nonce\n    ) public pure returns (bytes32) {\n        return keccak256(abi.encodePacked(user, amount, nonce));\n    }\n\n    /**\n     * @dev TRON签名消息哈希（使用TRON前缀）\n     */\n    function getTronSignedMessageHash(bytes32 messageHash)\n        public\n        pure\n        returns (bytes32)\n    {\n        return keccak256(\n            abi.encodePacked(\"\\x19TRON Signed Message:\\n32\", messageHash)\n        );\n    }\n\n    function recoverSigner(bytes32 signedMessageHash, bytes memory signature)\n        public\n        pure\n        returns (address)\n    {\n        require(signature.length == 65, \"Invalid signature length\");\n\n        bytes32 r;\n        bytes32 s;\n        uint8 v;\n\n        assembly {\n            r := mload(add(signature, 32))\n            s := mload(add(signature, 64))\n            v := byte(0, mload(add(signature, 96)))\n        }\n\n        return ecrecover(signedMessageHash, v, r, s);\n    }\n\n    // ==================== 管理函数 ====================\n\n    function updatePlatformWallet(address newWallet) external onlyOwner {\n        require(newWallet != address(0), \"Invalid wallet address\");\n        address oldWallet = platformWallet;\n        platformWallet = newWallet;\n        emit PlatformWalletUpdated(oldWallet, newWallet);\n    }\n\n    function updateDepositLimits(uint256 minAmount, uint256 maxAmount) external onlyOwner {\n        require(minAmount > 0, \"Min amount must be positive\");\n        require(maxAmount > minAmount, \"Max must be greater than min\");\n        minDepositAmount = minAmount;\n        maxDepositAmount = maxAmount;\n        emit DepositLimitsUpdated(minAmount, maxAmount);\n    }\n\n    function pause() external onlyOwner {\n        paused = true;\n        emit Paused(msg.sender);\n    }\n\n    function unpause() external onlyOwner {\n        paused = false;\n        emit Unpaused(msg.sender);\n    }\n\n    function transferOwnership(address newOwner) external onlyOwner {\n        require(newOwner != address(0), \"Invalid owner address\");\n        owner = newOwner;\n    }\n\n    // ==================== 查询函数 ====================\n\n    function checkAllowance(address user) external view returns (uint256) {\n        return IERC20(USDT).allowance(user, address(this));\n    }\n\n    function checkBalance(address user) external view returns (uint256) {\n        return IERC20(USDT).balanceOf(user);\n    }\n\n    function isNonceUsed(bytes32 nonce) external view returns (bool) {\n        return usedNonces[nonce];\n    }\n\n    function getUserTotalDeposited(address user) external view returns (uint256) {\n        return totalDeposited[user];\n    }\n}\n",
  "sourcePath": "/data/projects/vitufinance/contracts-tron/contracts/DepositRelay.sol",
  "compiler": {
    "name": "solc",
    "version": "0.8.20+commit.5f1834bc.Emscripten.clang"
  },
  "schemaVersion": "2.0.1",
  "updatedAt": "2026-02-28T15:27:01.096Z"
}